{
  "contractName": "Voting",
  "abi": [
    {
      "inputs": [],
      "payable": false,
      "stateMutability": "nonpayable",
      "type": "constructor"
    },
    {
      "constant": true,
      "inputs": [
        {
          "internalType": "uint256",
          "name": "",
          "type": "uint256"
        }
      ],
      "name": "candidates",
      "outputs": [
        {
          "internalType": "uint256",
          "name": "id",
          "type": "uint256"
        },
        {
          "internalType": "string",
          "name": "name",
          "type": "string"
        },
        {
          "internalType": "string",
          "name": "party",
          "type": "string"
        },
        {
          "internalType": "uint256",
          "name": "voteCount",
          "type": "uint256"
        }
      ],
      "payable": false,
      "stateMutability": "view",
      "type": "function"
    },
    {
      "constant": true,
      "inputs": [],
      "name": "countCandidates",
      "outputs": [
        {
          "internalType": "uint256",
          "name": "",
          "type": "uint256"
        }
      ],
      "payable": false,
      "stateMutability": "view",
      "type": "function"
    },
    {
      "constant": true,
      "inputs": [
        {
          "internalType": "address",
          "name": "",
          "type": "address"
        }
      ],
      "name": "voters",
      "outputs": [
        {
          "internalType": "bool",
          "name": "",
          "type": "bool"
        }
      ],
      "payable": false,
      "stateMutability": "view",
      "type": "function"
    },
    {
      "constant": true,
      "inputs": [],
      "name": "votingEnd",
      "outputs": [
        {
          "internalType": "uint256",
          "name": "",
          "type": "uint256"
        }
      ],
      "payable": false,
      "stateMutability": "view",
      "type": "function"
    },
    {
      "constant": true,
      "inputs": [],
      "name": "votingStart",
      "outputs": [
        {
          "internalType": "uint256",
          "name": "",
          "type": "uint256"
        }
      ],
      "payable": false,
      "stateMutability": "view",
      "type": "function"
    },
    {
      "constant": false,
      "inputs": [
        {
          "internalType": "string",
          "name": "_name",
          "type": "string"
        },
        {
          "internalType": "string",
          "name": "_party",
          "type": "string"
        }
      ],
      "name": "addCandidate",
      "outputs": [],
      "payable": false,
      "stateMutability": "nonpayable",
      "type": "function"
    },
    {
      "constant": false,
      "inputs": [
        {
          "internalType": "uint256",
          "name": "_candidateID",
          "type": "uint256"
        }
      ],
      "name": "vote",
      "outputs": [],
      "payable": false,
      "stateMutability": "nonpayable",
      "type": "function"
    },
    {
      "constant": true,
      "inputs": [],
      "name": "checkVote",
      "outputs": [
        {
          "internalType": "bool",
          "name": "",
          "type": "bool"
        }
      ],
      "payable": false,
      "stateMutability": "view",
      "type": "function"
    },
    {
      "constant": true,
      "inputs": [
        {
          "internalType": "uint256",
          "name": "_candidateID",
          "type": "uint256"
        }
      ],
      "name": "getCandidate",
      "outputs": [
        {
          "internalType": "uint256",
          "name": "",
          "type": "uint256"
        },
        {
          "internalType": "string",
          "name": "",
          "type": "string"
        },
        {
          "internalType": "string",
          "name": "",
          "type": "string"
        },
        {
          "internalType": "uint256",
          "name": "",
          "type": "uint256"
        }
      ],
      "payable": false,
      "stateMutability": "view",
      "type": "function"
    },
    {
      "constant": false,
      "inputs": [
        {
          "internalType": "uint256",
          "name": "_start",
          "type": "uint256"
        },
        {
          "internalType": "uint256",
          "name": "_end",
          "type": "uint256"
        }
      ],
      "name": "setDates",
      "outputs": [],
      "payable": false,
      "stateMutability": "nonpayable",
      "type": "function"
    },
    {
      "constant": true,
      "inputs": [],
      "name": "getDates",
      "outputs": [
        {
          "internalType": "uint256",
          "name": "",
          "type": "uint256"
        },
        {
          "internalType": "uint256",
          "name": "",
          "type": "uint256"
        }
      ],
      "payable": false,
      "stateMutability": "view",
      "type": "function"
    }
  ],
  "bytecode": "0x608060405234801561001057600080fd5b506000600281905550610e43806100286000396000f3fe608060405234801561001057600080fd5b50600436106100a95760003560e01c806335b8e8201161007157806335b8e8201461039257806385a38635146104b3578063a3ec138d146104d1578063b0417e981461052d578063b86eda911461054f578063dedf141e1461056d576100a9565b80630121b93f146100ae578063101158af146100dc57806316441813146100fa57806326541b561461011f5780633477ee2e14610271575b600080fd5b6100da600480360360208110156100c457600080fd5b81019080803590602001909291905050506105a5565b005b6100e46107ee565b6040518082815260200191505060405180910390f35b6101026107f4565b604051808381526020018281526020019250505060405180910390f35b61026f6004803603604081101561013557600080fd5b810190808035906020019064010000000081111561015257600080fd5b82018360208201111561016457600080fd5b8035906020019184600183028401116401000000008311171561018657600080fd5b91908080601f016020809104026020016040519081016040528093929190818152602001838380828437600081840152601f19601f820116905080830192505050505050509192919290803590602001906401000000008111156101e957600080fd5b8201836020820111156101fb57600080fd5b8035906020019184600183028401116401000000008311171561021d57600080fd5b91908080601f016020809104026020016040519081016040528093929190818152602001838380828437600081840152601f19601f820116905080830192505050505050509192919290505050610805565b005b61029d6004803603602081101561028757600080fd5b81019080803590602001909291905050506108a4565b604051808581526020018060200180602001848152602001838103835286818151815260200191508051906020019080838360005b838110156102ed5780820151818401526020810190506102d2565b50505050905090810190601f16801561031a5780820380516001836020036101000a031916815260200191505b50838103825285818151815260200191508051906020019080838360005b83811015610353578082015181840152602081019050610338565b50505050905090810190601f1680156103805780820380516001836020036101000a031916815260200191505b50965050505050505060405180910390f35b6103be600480360360208110156103a857600080fd5b8101908080359060200190929190505050610a04565b604051808581526020018060200180602001848152602001838103835286818151815260200191508051906020019080838360005b8381101561040e5780820151818401526020810190506103f3565b50505050905090810190601f16801561043b5780820380516001836020036101000a031916815260200191505b50838103825285818151815260200191508051906020019080838360005b83811015610474578082015181840152602081019050610459565b50505050905090810190601f1680156104a15780820380516001836020036101000a031916815260200191505b50965050505050505060405180910390f35b6104bb610bb4565b6040518082815260200191505060405180910390f35b610513600480360360208110156104e757600080fd5b81019080803573ffffffffffffffffffffffffffffffffffffffff169060200190929190505050610bba565b604051808215151515815260200191505060405180910390f35b610535610bda565b604051808215151515815260200191505060405180910390f35b610557610c2e565b6040518082815260200191505060405180910390f35b6105a36004803603604081101561058357600080fd5b810190808035906020019092919080359060200190929190505050610c34565b005b600160003373ffffffffffffffffffffffffffffffffffffffff1673ffffffffffffffffffffffffffffffffffffffff16815260200190815260200160002060009054906101000a900460ff1615610665576040517f08c379a000000000000000000000000000000000000000000000000000000000815260040180806020018281038252600d8152602001807f416c726561647920766f7465640000000000000000000000000000000000000081525060200191505060405180910390fd5b60008111801561067757506002548111155b6106e9576040517f08c379a00000000000000000000000000000000000000000000000000000000081526004018080602001828103825260118152602001807f496e76616c69642063616e64696461746500000000000000000000000000000081525060200191505060405180910390fd5b60035442101580156106fd57506004544211155b61076f576040517f08c379a000000000000000000000000000000000000000000000000000000000815260040180806020018281038252600d8152602001807f566f74696e6720636c6f7365640000000000000000000000000000000000000081525060200191505060405180910390fd5b60018060003373ffffffffffffffffffffffffffffffffffffffff1673ffffffffffffffffffffffffffffffffffffffff16815260200190815260200160002060006101000a81548160ff0219169083151502179055506000808281526020019081526020016000206003016000815480929190600101919050555050565b60035481565b600080600354600454915091509091565b6002600081548092919060010191905055506040518060800160405280600254815260200183815260200182815260200160008152506000806002548152602001908152602001600020600082015181600001556020820151816001019080519060200190610875929190610d41565b506040820151816002019080519060200190610892929190610d41565b50606082015181600301559050505050565b6000602052806000526040600020600091509050806000015490806001018054600181600116156101000203166002900480601f0160208091040260200160405190810160405280929190818152602001828054600181600116156101000203166002900480156109565780601f1061092b57610100808354040283529160200191610956565b820191906000526020600020905b81548152906001019060200180831161093957829003601f168201915b505050505090806002018054600181600116156101000203166002900480601f0160208091040260200160405190810160405280929190818152602001828054600181600116156101000203166002900480156109f45780601f106109c9576101008083540402835291602001916109f4565b820191906000526020600020905b8154815290600101906020018083116109d757829003601f168201915b5050505050908060030154905084565b60006060806000610a13610dc1565b60008087815260200190815260200160002060405180608001604052908160008201548152602001600182018054600181600116156101000203166002900480601f016020809104026020016040519081016040528092919081815260200182805460018160011615610100020316600290048015610ad35780601f10610aa857610100808354040283529160200191610ad3565b820191906000526020600020905b815481529060010190602001808311610ab657829003601f168201915b50505050508152602001600282018054600181600116156101000203166002900480601f016020809104026020016040519081016040528092919081815260200182805460018160011615610100020316600290048015610b755780601f10610b4a57610100808354040283529160200191610b75565b820191906000526020600020905b815481529060010190602001808311610b5857829003601f168201915b50505050508152602001600382015481525050905080600001518160200151826040015183606001518292508191509450945094509450509193509193565b60045481565b60016020528060005260406000206000915054906101000a900460ff1681565b6000600160003373ffffffffffffffffffffffffffffffffffffffff1673ffffffffffffffffffffffffffffffffffffffff16815260200190815260200160002060009054906101000a900460ff16905090565b60025481565b6000600354148015610c4857506000600454145b610cba576040517f08c379a00000000000000000000000000000000000000000000000000000000081526004018080602001828103825260118152602001807f446174657320616c72656164792073657400000000000000000000000000000081525060200191505060405180910390fd5b818111610d2f576040517f08c379a000000000000000000000000000000000000000000000000000000000815260040180806020018281038252600d8152602001807f496e76616c69642064617465730000000000000000000000000000000000000081525060200191505060405180910390fd5b81600381905550806004819055505050565b828054600181600116156101000203166002900490600052602060002090601f016020900481019282601f10610d8257805160ff1916838001178555610db0565b82800160010185558215610db0579182015b82811115610daf578251825591602001919060010190610d94565b5b509050610dbd9190610de9565b5090565b6040518060800160405280600081526020016060815260200160608152602001600081525090565b610e0b91905b80821115610e07576000816000905550600101610def565b5090565b9056fea265627a7a72315820a17bdd35bcce66423e28174fd89e2a10c4346d77099c628cf6963bc04594ab9f64736f6c63430005100032",
  "source": "pragma solidity ^0.5.15;\r\n\r\ncontract Voting {\r\n\r\n    struct Candidate {\r\n        uint id;\r\n        string name;\r\n        string party;\r\n        uint voteCount;\r\n    }\r\n\r\n    mapping(uint => Candidate) public candidates;\r\n    mapping(address => bool) public voters;\r\n\r\n    uint public countCandidates;\r\n    uint public votingStart;\r\n    uint public votingEnd;\r\n\r\n    constructor() public {\r\n        countCandidates = 0;\r\n    }\r\n\r\n    function addCandidate(string memory _name, string memory _party) public {\r\n        countCandidates++;\r\n        candidates[countCandidates] = Candidate(\r\n            countCandidates,\r\n            _name,\r\n            _party,\r\n            0\r\n        );\r\n    }\r\n\r\n    function vote(uint _candidateID) public {\r\n        require(!voters[msg.sender], \"Already voted\");\r\n        require(_candidateID > 0 && _candidateID <= countCandidates, \"Invalid candidate\");\r\n        require(now >= votingStart && now <= votingEnd, \"Voting closed\");\r\n\r\n        voters[msg.sender] = true;\r\n        candidates[_candidateID].voteCount++;\r\n    }\r\n\r\n    function checkVote() public view returns (bool) {\r\n        return voters[msg.sender];\r\n    }\r\n\r\n    function getCandidate(uint _candidateID)\r\n        public\r\n        view\r\n        returns (uint, string memory, string memory, uint)\r\n    {\r\n        Candidate memory c = candidates[_candidateID];\r\n        return (c.id, c.name, c.party, c.voteCount);\r\n    }\r\n\r\n    function setDates(uint _start, uint _end) public {\r\n        require(votingStart == 0 && votingEnd == 0, \"Dates already set\");\r\n        require(_end > _start, \"Invalid dates\");\r\n        votingStart = _start;\r\n        votingEnd = _end;\r\n    }\r\n\r\n    function getDates() public view returns (uint, uint) {\r\n        return (votingStart, votingEnd);\r\n    }\r\n}\r\n",
  "sourcePath": "C:\\Users\\adich\\Decentralized-Voting-System\\contracts\\Voting.sol",
  "compiler": {
    "name": "solc",
    "version": "0.5.16+commit.9c3226ce.Emscripten.clang"
  },
  "schemaVersion": "3.4.16",
  "updatedAt": "2026-03-18T07:01:24.065Z",
  "networkType": "ethereum",
  "devdoc": {
    "methods": {}
  },
  "userdoc": {
    "methods": {}
  }
}